:020000041000EA
:1000000000B5324B212058609868022188439860DF
:10001000D860186158612E4B002199600221596106
:100020000121F02299502B49196001219960352056
:1000300000F044F80222904214D00621196600F024
:1000400034F8196E01211966002018661A6600F04E
:100050002CF8196E196E196E052000F02FF8012189
:100060000842F9D1002199601B49196000215960AB
:100070001A491B48016001219960EB211966A021F2
:10008000196600F012F800219960164914480160C1
:100090000121996001BC002800D000471248134993
:1000A000086003C880F30888084703B5996A0420EC
:1000B0000142FBD001200142F8D103BD02B5186610
:1000C0001866FFF7F2FF186E186E02BD00000240BE
:1000D000000000180000070000035F00212200005C
:1000E000F4000018222000A00001001008ED00E03C
:1000F00000000000000000000000000074B24E7A12
:1001000000200420F7010010C3010010C5010010F9
:10011000C1010010C1010010C1010010C101001097
:10012000C1010010C1010010C1010010C701001081
:10013000C1010010C1010010C9010010CB01001065
:10014000CD010010CD010010CD010010CD01001037
:10015000CD010010CD010010CD010010CD01001027
:10016000CD010010CD010010CD010010CD01001017
:10017000CD010010CD010010CD010010CD01001007
:10018000CD010010CD010010CD010010CD010010F7
:10019000CD010010CD010010CD010010CD010010E7
:1001A000CD010010CD010010CD010010CD010010D7
:1001B000CD010010CD010010CD010010CD010010C7
:1001C00000BE00BE00BE00BE00BE00BE00F04BF888
:1001D000103800BEF2EB88718CA40010A8A40010A7
:1001E0003402001090A31AE700202149086006C8D5
:1001F00081F3088810471F48006800282FD10DA4FC
:100200000ECC002902D000F012F8F9E71A491B4A77
:10021000002000E001C19142FCD1194988471949E9
:1002200088471949884700BEFDE701C901C29A42C3
:10023000FBD37047A8A40010C0000020240E0020AB
:100240000CB2001000000420000004200CB20010CA
:1002500000100420001004200000000070470B482C
:1002600008F018F90047EFF30580C0B270470000AE
:1002700008ED00E0000000D0280E00204813002008
:10028000317F00105D0300105580001057560000AC
:1002900006005250ABB3605338A400100600525011
:1002A000861C030248A40010060052505422A29D4E
:1002B00050A4001005005250DE65F4680CB2001026
:1002C000F8B5C0460448054B10B5834203D0044B33
:1002D000002B00D0984710BD240E0020240E0020D3
:1002E0000000000006480749091A8B10C90FC918F9
:1002F00010B5491003D0044B002B00D0984710BD17
:10030000240E0020240E00200000000010B5074C31
:100310002378002B09D1FFF7D5FF054B002B02D026
:10032000044800E000BF0123237010BD2811002005
:100330000000000090950010054B10B5002B03D075
:100340000449054800E000BFFFF7CCFF10BDC046E0
:10035000000000002C11002090950010F0B519202D
:10036000A9B006F0E5FDD02380221B0692045A6254
:100370009A61484B1022019313234749009302A826
:10038000013B00F02BF9112102A800F0C5F814235D
:100390001122009302A9013305A800F04BF90221B4
:1003A00005A800F057FDF82105A8090201F05AFC44
:1003B000FA20800007F05CFA384E394F20250124DE
:1003C0006300E40B1C43A4B2210005A801F04AFC21
:1003D000013D282007F04CFA002DF1D1002105A89D
:1003E00001F040FC6B461F243A229B5E6A46019452
:1003F0003C21525E05A800210092002201F046FE39
:100400006B463A229B5E6A4605A83C21525E00215B
:100410000194009501F03AFEFA20800007F028FAD6
:1004200005A8002101F01EFC05A81E4903F056F89E
:100430006B463C229A5E3100D30F9B185B10012261
:1004400005A805F077FCFA20800007F011FAFC21DE
:1004500005A8C90003F042F8390005A803F0CCFC58
:1004600005A8032100F060FA05A800230622012157
:1004700002F0E4FF6B463C229A5E3100D30F9B18DA
:100480005B10012205A805F055FCFA20800007F05A
:10049000EFF993E7002D310100C003409095001063
:1004A000CC9B0010FFFF00004368D868C006C00F57
:1004B0007047C046007AFF38431E9841C0B270476B
:1004C00010B544689201013920681143DB011943DA
:1004D00041408020CF23400119402043016010BDDE
:1004E00043680433002905D080229201134304227B
:1004F0001A607047C0229201134304221A60F8E781
:100500004368D8688007C00F7047C0464368D86802
:100510004007C00F7047C04670B50C0005000121B0
:10052000200006F0EDFC2C7270BDC04610B5040032
:10053000034B08330360406808F05AFB200010BDED
:100540009C95001010B50400054B0833036040680B
:1005500008F04EFB20000C2108F054F9200010BDDB
:100560009C95001010B5406808F0EAFF10BDC04629
:1005700010B5406808F0DCFF10BDC04610B54068FB
:1005800008F0B6FF10BDC04610B5406808F0E0FFA7
:1005900010BDC04610B5406808F0F2FF10BDC0465F
:1005A00010B5406808F0DCFF10BDC04610B582B041
:1005B0006B460268D9710733946A19000122A0477B
:1005C00002B010BD10B582B06B460268D980063308
:1005D000546B19000122A04702B010BDF8B5040009
:1005E0001D0006AB1F780C4B160008332360FF2359
:1005F000616023720800079908F07EFA300001213B
:1006000006F07EFC2800012106F07AFC380001216A
:1006100006F076FC2000F8BD9C95001010B582B065
:100620006B460268D9710733946819000122A0470C
:1006300002B010BDF0B557464E464546DE460400B2
:10064000E0B583B01E000CAB1F78884B61600833A7
:100650002360874B08002365FE239B05A36560216B
:100660000023E36563540C31635231020A43802155
:10067000625282227F31A754083AA1527D4A022158
:10068000E2674422FF31A152453A01396263FF39E2
:100690004932A1542822A15EE3646381E3602361AF
:1006A0002622A35E1825625F9C46A382E1829342C4
:1006B00000DD944665462DB2AB4665462D0403D554
:1006C0000025AC460025AB466546D218944612B2CA
:1006D000A5839A4200DD9C46624612B2904662466D
:1006E000120403D5002294460022904662462284DA
:1006F0001A25625F8C46914200DD944665462DB214
:10070000A94665462D0403D50025AC460025A9461B
:1007100065465218944612B2E5838A4200DD8C4643
:10072000624612B292466246120403D500229446F3
:100730000022924662466284C34500D16FE04D4676
:100740005246521B15006A426A412425D2B2AC4679
:100750006255434569D000252522A554DA43D217B6
:100760001A402284A561E56100294EDD61842421BF
:100770005A1E1A43D20F6254002B4EDA0022252350
:10078000E2540368DB689847002803D18025605D48
:10079000FF282AD16068026812699047051EF9D1C6
:1007A0000122904660680821036800925B6900227C
:1007B00099460023C8473000657206F0B9FB4346EE
:1007C000D025B3402D0638006B621E0006F0B0FB4A
:1007D00043462000BB406B62AE61AB6103B0F0BC2E
:1007E000BB46B246A946A046F0BD06F0A1FB0123D8
:1007F000625D60689340D0221206536253610268C2
:1008000012699047051EC5D1CAE7658424220125D7
:10081000A554002BB2DB0029B0D10122AFE724257B
:100820000122AC466255434595D15D464A46154383
:10083000AB4600D08FE78A4500D08CE70122914675
:100840004D462432A5545A46A261E26152462384A1
:10085000002A07D062845A1E13436246DB0FA3545A
:1008600001228CE763466184E554D4E7BC9600100E
:1008700001000108A0008000F0B5437A04000E00DA
:1008800083B0002B12D18123E25C803B9340D022C5
:100890001206310060689361FFF788FE60680368A4
:1008A0001B6998470028F9D103B0F0BD6068036860
:1008B0001B699847051EF9D1012260680821036869
:1008C00000925F6900220023B8476572DBE7C046EB
:1008D000F0B5437A04000E0083B0002B12D18123BF
:1008E000E25C803B9340D022120631006068536185
:1008F000FFF75CFE606803681B6998470028F9D120
:1009000003B0F0BD606803681B699847051EF9D104
:10091000012260680821036800925F6900220023B9
:10092000B8476572DBE7C046F0B5C64600B50400BF
:10093000406882B003680E00DB689847002806D143
:100940008023E25C7F3B9340D02212069361637A5E
:10095000002B2ED18123E25C803B9340D0221206F3
:10096000362193616068FFF721FE03214623314061
:10097000E154237A022963D0032944D0012929D0E4
:10098000022B00D1EEE0052B00D1EBE0C8212000C6
:10099000FFF79EFF7E23E35AE3847C23E35A2385FB
:1009A0007223E25A0433E252023BE25A0433E25227
:1009B00062E0606803681B699847051EF9D101224F
:1009C00060680821036800925F6900220023B8472D
:1009D0006572BFE7022B00D1CEE0052B00D1CBE042
:1009E000A8212000FFF774FF7E23E35A23857C2390
:1009F000E35AE3847223E25A0633E252043BE25A9A
:100A00000233E25238E0022B00D1B0E0052B00D1D6
:100A1000ADE068212000FFF75BFF7C23E35AE3840D
:100A20007E23E35A23857223E25A0633E2522022C0
:100A3000043BE35A93435A1E93417622A3521BE090
:100A4000022B00D19DE0052B00D19AE00821200067
:100A5000FFF73EFF7E23E35AE3847C23E35A23859A
:100A60007223E25A0433E2522022023BE35A9343B8
:100A70005A1E93417822A35246236068E25C3433C5
:100A8000E2520368DB689847002806D18023E25CC5
:100A90007F3B9340D0221206536100232822A15E9F
:100AA00023612622A35E1820225EA382E182181C05
:100AB000934200DD101C05B2060401D5002000257C
:100AC000D218A083101C12B29A4200DD181C06B284
:100AD000020401D50020002620841A20225E081C72
:100AE000914200DD101C07B2B846070402D500276A
:100AF0000020B8465218E083101C12B28A4200DD72
:100B0000081C02B29446020402D50022002094463A
:100B10006084AE4244D040466246821A504242410E
:100B20002420D2B22254B3423FD000202522A05428
:100B3000DA43D2171A402284A061E061002925DD42
:100B4000618424215A1E1A43D20F6254002B25DAE5
:100B500000222523E25400236381A38102B080BCDC
:100B6000B846F0BDC0212000FFF7B2FE12E76021B9
:100B70002000FFF7ADFE50E7A0212000FFF7A8FE00
:100B800032E700212000FFF7A3FE63E76084242200
:100B90000120A054002BDBDB0029D9D10122D8E7AA
:100BA000012224202254B342BFD142461543BCD176
:100BB0006145BAD101222526A2552384A561E561AC
:100BC0006184002905D05A1E1343DB0F01222354F0
:100BD000BFE722540122BCE7F0B5437A04000D00C0
:100BE00083B0002B12D08123E25C803B9340D02263
:100BF0001206290060685361FFF7E4FC606803682F
:100C00001B6998470028F9D103B0F0BD60680368FC
:100C10001B6998470028F9D1012660680022036803
:100C200000965F6910210023B8476672DBE7C04673
:100C3000F0B557464546DE464E46E0B507004068EB
:100C400089B003680D00DB689847002806D180232F
:100C5000FA5C7F3B9340D022120693612B786C1C88
:100C60005A1ED2B20692002B5ED001239B4638005A
:100C70002178FFF701FE7F217E236278A01C1140BE
:100C8000049007920591134262D003338C469A4632
:100C9000D02305001B0660448146984610E0534669
:100CA0005A46FB5C31009A40130042467868536113
:100CB000FFF77CFC4B4601355B1BDBB2012B17D9E0
:100CC0007B7A2E78002BEAD0786803681B699847F6
:100CD0000028F9D101220390786808210368009266
:100CE0005B6900221C000023A047039B7B72D6E7B0
:100CF000059B012B5AD0023BDBB20133049A944688
:100D000063445A1C380019780492FFF7E1FD6B46E2
:100D10001B7F049A5BB21400002B1DDB069B013B7A
:100D2000DBB20693FF2BA2D178680368DB68984793
:100D3000002806D18023FA5C7F3B9340D022120624
:100D4000536109B0F0BCBB46B246A946A046F0BD0F
:100D50000029DCD0049BD4E715780134FF2D01D1A4
:100D6000FA256D0078680368DB689847002806D18B
:100D700080235A46FB5C9A40D0231B065A61786850
:100D800003681B6998470028F9D1280006F070FD18
:100D900078680368DB6898470028BFD180235A46EB
:100DA000FB5C9A40D0231B069A61B7E70123A5E7B5
:100DB000F0B5C646002372228126040000B5835296
:100DC000063243678352805D0D0006F0B1F8A35DE3
:100DD000803E3200D0279A4063683F067A62002B3B
:100DE0002BD08226A05DFF281ED0012706F0A0F898
:100DF0003A00A35D64209A401300D0221206536289
:100E00005361904606F034FD3A00A35D64209A4099
:100E100013004246936106F02BFDA35DC8209F405E
:100E200043465F6106F024FD002D03D02900200019
:100E3000FFF7FEFE80BCB846F0BD8033E05C98460C
:100E4000FF28CED006F074F84346E35C9E407E62F5
:100E5000C7E7C046F0B500220D0083B04849040042
:100E6000FFF7A6FF002D3DD0012D5CD0042D48D00A
:100E7000052D00D172E0062D63D020004149FFF717
:100E8000D7FE20004049FFF7D3FE022D11D1637A2F
:100E9000002B16D18123E25C803B9340D0221206C6
:100EA000362160689361FFF781FBC0212000FFF7C6
:100EB0000FFD23682572002120001B68984703B0AE
:100EC000F0BD606803681B699847061EF9D10122CE
:100ED00060680821036800925F6900220023B84718
:100EE0006672D7E720002949FFF7A2FE722302228B
:100EF000E2520233013A20002349E252FFF798FE02
:100F0000D7E77C2380222000E2522149FFF790FEA0
:100F100072230022E25202332032E25220001A49A8
:100F2000FFF786FEC5E77C2380222000E2521849A5
:100F3000FFF77EFE72230222E25202330132E252B6
:100F4000ECE7144B2000E3671349FFF771FE7223AF
:100F50001A22E2520233193AE252DFE70D4B200027
:100F6000E3670E49FFF764FE72231822E252002263
:100F7000023320000449E252FFF75AFE87E7C046D9
:100F800044960010AC960010809600100496001055
:100F900014960010A0005000349600102496001003
:100FA000F0B54646D6464F460400C0B5008B1D003E
:100FB00041181C20235E8EB209B282B08B4200DD44
:100FC000A8E02020235E8B4200DCA3E0638B9A180C
:100FD0001E21635E97B212B2934200DD9AE0222195
:100FE000635E934200DC95E060680368DB689847C5
:100FF000002806D18023E25C7F3B9340D02212067A
:101000009361637A002B00D08AE08123E25C803B0D
:101010009340D022120693612A216068FFF7C6FA36
:101020007623E35AF3189BB29846637A002B00D1DB
:10103000E7E08123E25C803B9340D02212065361BB
:1010400041466068FFF7BEFA7623E35A0133F6188B
:10105000637AB6B2002B00D1ADE08123E25C803B25
:101060009340D0221206536131006068FFF7AAFA5C
:10107000637A002B00D0B2E08123E25C803B934096
:10108000D022120693612B216068FFF78FFA782334
:10109000E65A637ABE19B6B2002B00D177E08123FD
:1010A000E25C803B9340D0221206536131006068BD
:1010B000FFF788FA7823E35A0133FF18637ABFB247
:1010C000002B52D08123E25C803B9340D022120659
:1010D000536139006068FFF775FA637A002B33D1EA
:1010E000012681233200E35CD0279A403F062C2161
:1010F0006068BA61FFF75AFA20002900FFF76CFD1B
:1011000060680368DB689847002803D18023E35CAC
:101110009E407E6102B0E0BCBA46B146A846F0BD32
:10112000606803681B69984780460028F8D101224F
:1011300060680821036800925B69002299460023D9
:10114000C8474346637260E7606803681B69984755
:10115000061EF9D1012260680821036800925F69C8
:1011600000220023B8476672BAE7606803681B690B
:1011700098470028F9D1012660680022036800968C
:101180005B69102198460023C04766729AE7606841
:1011900003681B6998470028F9D1012290466068CE
:1011A0001021036800925B69002299460023C8471A
:1011B0004346637273E7606803681B6998470028B9
:1011C000F9D10122904660681021036800925B69A2
:1011D000002299460023C847434663723DE7606892
:1011E00003681B699847061EF9D10122606808212F
:1011F000036800925B69002298460023C04766722C
:101200003AE7606803681B6998470028F9D1012212
:10121000914660681021036800925B6900229A463B
:101220000023D0474B46637203E7C046F0B54E46F5
:101230004546DE4657460400E0B585B01E000EABBD
:101240001B889846038B59188BB299461C20235E45
:1012500009B28B4200DDE3E02020235E8B4200DCFC
:10126000DEE0638B9B182221625E9FB21BB29A4222
:1012700000DCD5E01E20215E994205DD8BB2FF1A0D
:10128000BE191F000B0036B29B19934200DDCEE061
:10129000002E00DCC4E060680368DB689847002823
:1012A00006D18023E25C7F3B9340D02212069361FB
:1012B000B3B20393637A002B00D046E18123E25C52
:1012C000803B9340D022120693612A216068FFF789
:1012D0006DF97623E35A4B449BB29A46637A002B0E
:1012E00000D11CE18123E25C803B9340D0221206B6
:1012F000514653616068FFF765F97623E15A494426
:101300008BB29946637A002B00D1F2E08123E25C34
:10131000803B9340D0221206536149466068FFF734
:1013200051F9637A002B00D0CDE08123E25C803B51
:101330009340D022120693612B216068FFF736F9A3
:101340007823E35AFB189BB29946637A002B00D1AD
:101350008EE08123E25C803B9340D02212065361F1
:1013600049466068FFF72EF97823E35A013BFF18DE
:10137000039B9C46637A6744BFB2002B62D08123F3
:10138000E25C803B9340D0221206536139006068D2
:10139000FFF718F9637A002B00D07FE08123E25C2D
:1013A000803B9340D022120693612C2160689146C5
:1013B000FFF7FCF8812301279A46012E26D04646E6
:1013C000039D0EE053463A00E35C013D9A40130052
:1013D0004A46310060685361ADB2FFF7F3F8012D62
:1013E00013D9637A002BEDD1606803681B699847B5
:1013F0000028F9D160680022036800975B6910211A
:1014000098460023C0476772DCE7B046200041469B
:10141000FFF7E2FB60680368DB689847002809D0A3
:1014200005B0F0BCBB46B246A946A046F0BDD21BF3
:1014300016B22DE78023E25C7F3B9340D022120658
:101440005361EDE76546606803681B6998470028AB
:10145000F9D10122914660681021036800925B690E
:1014600000229A4603950023D0474B46637286E7D5
:10147000039D606803681B6998470028F9D1012221
:10148000924660681021036800925B6900229B46C7
:1014900003950023D847534663725AE7039D60685B
:1014A00003681B6998470028F9D10122070060688A
:1014B0000821036800925B69002299460395002386
:1014C000C84767726AE7039D606803681B699847AD
:1014D0000028F9D101228146606808210368009242
:1014E0005B6900229A4603950023D0474B466372FE
:1014F0001BE7039D606803681B6998470028F9D1C2
:101500000122924660681021036800925B69002204
:101510009B4603950023D84753466372F6E6039D26
:10152000606803681B6998470028F9D10122934637
:1015300060680395036800925B6900221D0010211A
:101540000023A8475B466372CCE6B5B260680368C7
:101550001B6998470028F9D101228246606808215A
:10156000036800925B6900229B4603950023D847DD
:1015700053466372A2E6C046F0B54E464546DE4687
:1015800057460400E0B585B01E000EAB1B8808006E
:101590009846638B9A1893B299461E21635E12B2E5
:1015A000934200DDE1E0218B09182023E05E8FB239
:1015B00009B2884200DCD8E02225635F934200DC58
:1015C000D3E01C23E25E8A4205DD93B2FF1ABE1906
:1015D00011001F0036B28919814200DDCCE0002ED7
:1015E00000DCC2E060680368DB689847002806D129
:1015F0008023E25C7F3B9340D02212069361B3B21A
:101600000393637A002B00D043E18123E25C803BAB
:101610009340D022120693612A216068FEF7C6FF2C
:101620007623E35AFB189BB29A46637A002B00D1CB
:1016300019E18123E25C803B9340D0221206536182
:1016400051466068FEF7BEFF7623E35A013BFF1860
:10165000039B9C46637A6744BFB2002B00D1ECE049
:101660008123E25C803B9340D02212065361390013
:101670006068FEF7A7FF637A002B00D0C8E08123E3
:10168000E25C803B9340D022120693612B2160687C
:10169000FEF78CFF7823E75A637A4F44BFB2002BE2
:1016A00000D18AE08123E25C803B9340D022120685
:1016B000390053616068FEF785FF7823E15A637A49
:1016C00049448FB2002B62D08123E25C803B93407F
:1016D000D0221206536139006068FEF773FF637A07
:1016E000002B00D07FE08123E25C803B9340D0223E
:1016F000120693612C2160689146FEF757FF812303
:1017000001279A46012E26D04646039D0EE05346F9
:101710003A00E35C013D9A4013004A46310060689C
:101720005361ADB2FEF74EFF012D13D9637A002B42
:10173000EDD1606803681B6998470028F9D160689B
:101740000022036800975B69102198460023C04778
:101750006772DCE7B04620004146FFF73DFA60685B
:101760000368DB689847002809D005B0F0BCBB4689
:10177000B246A946A046F0BDC61B36B22FE780236D
:10178000E25C7F3B9340D02212065361EDE7039D5C
:10179000606803681B6998470028F9D101229146C7
:1017A00060681021036800925B6900229A460395E5
:1017B0000023D0474B46637286E7039D6068036849
:1017C0001B6998470028F9D10122924660681021D0
:1017D000036800925B6900229B4603950023D8476B
:1017E000534663725EE7039D606803681B69984710
:1017F0000028F9D1012207006068082103680092DF
:101800005B690022994603950023C84767726AE71F
:10181000039D606803681B6998470028F9D101227D
:10182000070060680821036800925B6900229A46FD
:1018300003950023D047677221E765466068036817
:101840001B6998470028F9D101229246606810214F
:10185000036800925B6900229B4603950023D847EA
:1018600053466372FCE6039D606803681B699847F2
:101870000028F9D10122934660680395036800921D
:101880005B6900221D0010210023A8475B4663729C
:10189000CFE6B5B2606803681B6998470028F9D1A4
:1018A0000122824660680821036800925B69002279
:1018B0009B4603950023D84753466372A5E6C0466E
:1018C000F0B54546DE4657464E460400E0B587B0C3
:1018D0001F0010AB0025585F11AB1B888346049393
:1018E000238B5B182020215E9DB21BB2994200DC45
:1018F00014E1608B821890B282462226A05F12B259
:101900000590904200DC09E1BC4603971C27E65F86
:101910009C44B44500DC01E191461E20275ED94479
:10192000B846B94500DCF9E09E4209DDB3B2E81AD9
:10193000039DAC46604400B284461D000390B4444D
:10194000904509DD43469AB253469B1A5B441BB24D
:101950009B46D844C1469246614500DAEDE06B46AD
:101960009B899846059B4B4500DADEE05B469BB2BF
:10197000994660680368DB689847002806D1802391
:10198000E25C7F3B9340D02212069361637A002B86
:1019900000D001E18123E25C803B9340D02212061B
:1019A00093612A216068FEF701FE7623E65A637A86
:1019B000AE19B6B2002B00D1D9E08123E25C803BA6
:1019C0009340D0221206536131006068FEF7FAFDA1
:1019D0007623E35A013BED18637A4544ADB2002B00
:1019E00000D12AE18123E25C803B9340D0221206A1
:1019F000536129006068FEF7E5FD637A002B00D093
:101A000007E18123E25C803B9340D0221206936180
:101A10002B216068FEF7CAFD7823E55A637A5544A6
:101A2000ADB2002B00D1E0E08123E25C803B93402B
:101A3000D0221206290053616068FEF7C3FD7823A7
:101A4000E35A013B53444B449DB2637A002B00D1CF
:101A5000B7E08123E25C803B9340D02212065361C1
:101A600029006068FEF7AEFD637A002B6BD18123FD
:101A7000E25C803B9340D022120693612C21606887
:101A8000FEF794FD5B460126002B3ADD049F039B85
:101A90001D00012B2ADD81239946D0231B06984681
:101AA0000FE04B463200E35C013D9A401300424692
:101AB000390053616068FEF785FDABB22DB2012B92
:101AC00014D0637A002BECD1606803681B699847D7
:101AD0000028F9D1012260681021036800925B6937
:101AE00000229A460023D0476672DAE739002000C8
:101AF000FFF772F85B46013B9AB21BB29B46002A85
:101B0000C5D160680368DB689847002806D1802348
:101B1000E25C7F3B9340D0221206536107B0F0BCD9
:101B2000BB46B246A946A046F0BD1A005346D01A9D
:101B300083B2994603B29B461BE7491B8BB298467A
:101B40000BB203930EE7049F606803681B69984714
:101B50000028F9D10122050060680821036800927D
:101B60005E69002200230497B04765727FE7049FF7
:101B7000606803681B6998470028F9D1049701271A
:101B800060680022036800975B6910211F00002332
:101B9000B8470127677210E7049F606803681B69F4
:101BA00098470028F9D1012206006068049703686D
:101BB00000925B6900221F0008210023B84766726B
:101BC000E8E6049F606803681B6998470028F9D11C
:101BD000012660680022036800965B691021984620
:101BE00004970023C047667233E7049F6068036868
:101BF0001B6998470028F9D1012660680022036814
:101C000000965B691021984604970023C0476672CE
:101C10000AE7049F606803681B6998470028F9D1A8
:101C20000122050060680821036800925E690022B5
:101C300000230497B0476572E3E6049F6068036879
:101C40001B6998470028F9D10126606800220368C3
:101C500000965B691021984604970023C04766727E
:101C6000C0E6C04600B583B001912622835E2821DC
:101C7000425E002100920022FFF722FE03B000BD69
:101C8000F0B5DE4657464E4645460400E0B589B0FD
:101C90001E0012AB00201F5E238B03975B1899B2C6
:101CA0008B462020215E1BB2994200DC3FE1608B15
:101CB000821890B282462225605F12B2904200DC08
:101CC00035E1B04604961C26A55F9844AC46A8456D
:101CD00000DC2CE1B9463D001E26A75F9144B945C2
:101CE00000DC24E197420FDDBA1AAE1A049D36B229
:101CF0006A43139D5200A94691444A46B146139245
:101D0000BAB292460396B944484500DA28E16A46D9
:101D1000928902929C4500DD10E16B461B8A5F466A
:101D200099460023059300239B4641450ADA89B270
:101D3000CA1B13B204934B46FB18591A8BB29B462D
:101D400093B2994660680368DB689847002806D11B
:101D50008023E25C7F3B9340D02212069361637A3A
:101D6000002B00D003E18123E25C803B9340D02232
:101D7000120693612A216068FEF718FC7623E65A62
:101D8000637ABE19B6B2002B00D169E18123E25C0F
:101D9000803B9340D0221206310053616068FEF709
:101DA00011FC7623E65A637A013EBF194F44BEB256
:101DB000002B00D140E18123E25C803B9340D022A4
:101DC0001206536131006068FEF7FCFB637A002B5A
:101DD00000D01DE18123E25C803B9340D0221206BB
:101DE00093612B216068FEF7E1FB7823E65A637A62
:101DF0005644B6B2002B00D1F6E08123E25C803B72
:101E00009340D0221206310053616068FEF7DAFB7E
:101E10007823E65A029B013E9C465644637A664408
:101E2000B6B2002B00D1CBE08123E25C803B934033
:101E3000D0221206536131006068FEF7C3FB637A5B
:101E4000002B00D0A8E08123E25C803B9340D022AD
:101E5000120693612C216068FEF7A8FB039B002B00
:101E600058DD059B139D5B0006935B4601335B00C9
:101E70000593049B023B9BB201335B000793012354
:101E80009B46069B9A46AA44049D012D34DD81237E
:101E90009946D0231B065646984610E04B465A46B4
:101EA000E35C013D9A401300424602995361606829
:101EB000FEF788FBABB202362DB2012B19D0338866
:101EC0000293637A002BE9D1029F606803681B6963
:101ED00098470028F9D101226068029703680092B0
:101EE0005B6900221F0010210023B8475B46637224
:101EF000D4E7079B9C46E244534620001988FEF72E
:101F00006BFE039B059D013B9AB21BB255440393A4
:101F1000002AB6D160680368DB689847002806D1BC
:101F20008023E25C7F3B9340D0221206536109B0CC
:101F3000F0BCBB46B246A946A046F0BD63469FB280
:101F40005B46FB1A049A9BB205935B469046DB1BEB
:101F500043449AB21BB20493634491469846E2E626
:101F60005246801A82B2029202B20392D2E6139DC6
:101F7000606803681B6998470028F9D101220600B0
:101F800060680821036800925B69002298461395F7
:101F90000023C0476672E6E6139D606803681B690C
:101FA00098470028F9D101220600606808210368DB
:101FB00000925F69002200231395B847667242E7DA
:101FC000139D606803681B6998470028F9D10127B1
:101FD00060680022036800975B691021984613959A
:101FE0000023C04767721FE7139D606803681B6981
:101FF00098470028F9D101276068002203680097FC
:102000005B691021984613950023C0476772F4E678
:10201000139D606803681B6998470028F9D1012265
:10202000060060680821036800925F6900220023AF
:102030001395B8476672CDE6139D606803681B6907
:1020400098470028F9D101276068002203680097AB
:102050005B691021984613950023C0476772AAE672
:10206000139D606803681B6998470028F9D1012215
:10207000904660681395036800925B6900221D001A
:1020800010210023A847434663727FE6F0B545461A
:10209000DE4657464E469046E0B58BB09B4614ABA5
:1020A00000229A5E15AB1B8805000F000593904532
:1020B00001D100F0E5FD594501D100F0DCFE4346B9
:1020C0005E46D01AC417001960408146F41BE01721
:1020D00024184440200003941100BC464C4681451E
:1020E00006DD59463B009346474604003200E04671
:1020F0005F4509DD5B1AD9175C18434690461A0004
:102100003B005F469B464C40BBB29A465B465146FD
:102110005B1A99B21BB2DE0FF618012304917610F8
:102120000293904500DB44E268680368DB689847E7
:10213000002806D18023EA5C7F3B9340D022120620
:102140009361039B994500DC19E15F4501DD01F0D6
:1021500029F8A3B20393534601339BB29A46D02386
:102160001B063400994656463800414606E0731C6B
:1021700032B29BB2934500DA35E21E00039BE31AAC
:102180009FB21CB21B04F2D5731E9BB280B21C1A04
:10219000A4B2002C01D100F0F9FB8BB29A462B8B34
:1021A00053449AB207921C216A5E1BB29A4200DD28
:1021B0000BE220216A5E9A4200DC06E26B8B222150
:1021C0006A5EC01883B200B2904200DBFDE10134C8
:1021D000A1B28C461E24295F884201DA00F06AFE13
:1021E000614609B2069101000893069B9C46614432
:1021F000914203DD089BD21A13B20693069B002B73
:1022000000DCE2E19BB209936B7A002B01D001F074
:10221000D8F881230122EB5C2A219A4013004A4618
:1022200068689361FEF7C2F97623079AEB5A9446E1
:1022300063449BB298466B7A002B01D101F0ABF856
:1022400081230122EB5C41469A4013004A466868AC
:102250005361FEF7B7F97623079AEB5A9446634425
:102260009BB298466B7A002B01D101F07EF8812356
:102270000122EB5C41469A4013004A46686853616C
:10228000FEF7A0F96B7A002B01D001F057F88123FB
:102290000122EB5C2B219A4013004A466868936147
:1022A000FEF784F97823089AEB5A944663449BB26C
:1022B00098466B7A002B01D101F02AF88123012284
:1022C000EB5C41469A4013004A4668685361FEF74A
:1022D00079F97823089AEB5A9446099A013B6344AA
:1022E000944663449BB298466B7A002B01D100F070
:1022F000F9FF81230122EB5C41469A4013004A46D4
:1023000068685361FEF75EF96B7A002B01D000F02C
:10231000D2FF81230122EB5C2C219A4013004A4614
:1023200068689361FEF742F9B0460797069C059FDF
:1023300010E081230122EB5C013C9A4013004A46E5
:10234000390053616868FEF73DF9A3B224B2002B4F
:1023500000D138E16B7A002BEBD1686803681B6908
:1023600098470028F9D1012268681021036800927B
:102370005E6900220023B04701226A72D9E75F45F7
:1023800001DD00F00CFFA3B20393534601339BB26F
:102390009A46D0231B06994634003B0056464046D9
:1023A00006E0711C32B289B2934500DA0FE20E00EA
:1023B000039AA21A97B214B21204F2D5721E92B204
:1023C0009BB2D41AA4B2002C00D190E382B2924600
:1023D0006A8B524491B207911E20295E12B291423B
:1023E00000DDE6E1298B5B1818B2804699B20891AE
:1023F0002020295E884500DBDBE12223E85E904255
:1024000000DCD6E11C23EA5E0134A4B2904501DA77
:1024100000F047FD22B206924246089B0993069BB4
:102420009C4662448A4203DD099BC91A0BB206939B
:10243000069B002B00DCBCE19BB208936B7A002B5F
:1024400001D000F0C8FE81230122EB5C2A219A40D2
:1024500013004A4668689361FEF7A8F87623099A44
:10246000EB5A944663449BB298466B7A002B01D199
:1024700000F09BFE81230122EB5C41469A40130051
:102480004A4668685361FEF79DF87623099AEB5A2D
:102490009446089A013B6344944663449BB2984631
:1024A0006B7A002B01D100F0F0FE81230122EB5C5E
:1024B00041469A4013004A4668685361FEF782F825
:1024C0006B7A002B01D000F0C9FE81230122EB5C66
:1024D0002B219A4013004A4668689361FEF766F81C
:1024E0007823079AEB5A944663449BB298466B7ADA
:1024F000002B01D100F09CFE81230122EB5C4146C0
:102500009A4013004A4668685361FEF75BF87823E7
:10251000079AEB5A944663449BB298466B7A002B19
:1025200001D100F06FFE81230122EB5C41469A400D
:1025300013004A4668685361FEF744F86B7A002B33
:1025400001D000F055FF81230122EB5C2C219A4041
:1025500013004A4668689361FEF728F8B04607976B
:10256000069C059F10E081230122EB5C013C9A4010
:1025700013004A46390053616868FEF723F8A3B296
:1025800024B2002B00D112E16B7A002BEBD16868EA
:1025900003681B6998470028F9D101226868102157
:1025A000036800925E6900220023B04701226A722C
:1025B000D9E7E34B686802930368DB689847002813
:1025C00000D0BEE5B6E54646079F049B02999C46AF
:1025D00030B251446744731C020009B23CB29BB252
:1025E000934500DBC9E5B246070088467B1C9A424A
:1025F00000DC2DE32C8B1C22AB5E4444A6B224B23B
:10260000A34200DD24E32022AB5EA34200DC1FE3F3
:102610006C8BBFB23B199AB293462222A85E1BB2C2
:10262000834200DB14E31E216A5E934201DA00F06C
:10263000F6FE5246D71B1A003CB21219824202DD46
:102640005B46C01A04B2002C00DC01E3A3B2029383
:102650006B7A002B01D000F023FD8123EA5C803BE4
:102660009340D022120693612A216868FDF79EFFED
:102670007623EB5AF3189BB298466B7A002B01D164
:1026800000F022FD8123EA5C803B9340D0221206B9
:10269000536141466868FDF795FF7623EB5AF618BB
:1026A0006B7AB6B2002B01D100F0E5FC8123EA5C25
:1026B000803B9340D0221206536131006868FDF7D9
:1026C00081FF6B7A002B01D000F0C1FC8123EA5C12
:1026D000803B9340D022120693612B216868FDF75E
:1026E00065FF7823EE5A6B7A5E44B6B2002B01D1B7
:1026F00000F098FC8123EA5C803B9340D0221206D4
:10270000536131006868FDF75DFF7823029AEB5A48
:102710009446013B5B4463449FB26B7A002B01D12A
:1027200000F06DFC8123EA5C803B9340D0221206CE
:10273000536139006868FDF745FF6B7A002B01D0C3
:1027400000F04AFC8123EA5CD026803B93403606A9
:10275000B3612C216868FDF729FF01239946059B89
:10276000812798460DE04A46EB5D013C9A40414680
:1027700068687261FDF726FFA3B224B2002B00D176
:1027800066E26B7A002BEED1686803681B69984794
:102790000028F9D14A4668681021036800925B69F5
:1027A00000229A460023D0474B466B72DBE7464631
:1027B000079F049A0298944633B250446744711CB0
:1027C0001A0000B23CB289B2934500DBEFE5B24695
:1027D0001F0080467B1C9A4200DC39E26C8B1E2273
:1027E000AB5E4444A6B224B2A34200DD30E22B8BA0
:1027F000BFB29C46FB189AB2934620202A5E1BB2B9
:10280000934200DB24E22221685EA04200DC1FE24A
:102810001C21685E834201DA00F008FE5146180070
:10282000CF1B3CB20019904202DD5B46D41A24B2A1
:10283000002C00DC0CE2A3B29A466B7A002B00D08D
:102840008FE38123EA5C803B9340D02212069361A0
:102850002A216868FDF7AAFE7623EB5A5B449BB2F7
:1028600098466B7A002B00D155E38123EA5C803BCC
:102870009340D0221206536141466868FDF7A2FEDC
:102880007623EB5A013B5B4453449FB26B7A002B97
:1028900000D18DE38123EA5C803B9340D022120675
:1028A000536139006868FDF78DFE6B7A002B00D00C
:1028B00044E38123EA5C803B9340D022120693617B
:1028C0002B216868FDF772FE7823EB5AF3189FB24C
:1028D0006B7A002B00D157E38123EA5C803B934065
:1028E000D0221206536139006868FDF76BFE782329
:1028F000EB5AF6186B7AB6B2002B00D1F8E28123BE
:10290000EA5C803B9340D022120653613100686834
:10291000FDF758FE6B7A002B00D0D7E28123EA5CEA
:10292000D026803B93403606B3612C216868FDF7C2
:102930003DFE01239946059B8127984610E0C0463D
:10294000FFFF00004A46EB5D013C9A404146686843
:102950007261FDF737FEA3B224B2002B00D177E1FC
:102960006B7A002BEED1686803681B6998470028D2
:10297000F9D14A4668681021036800925B69002219
:102980009A460023D0474B466B72DBE78AB29246E9
:102990002A8B524491B206911C20295E12B29142B8
:1029A00000DD12E62020295E914200DC0DE66A8BF4
:1029B0009B189AB207921E216A5E1BB29A4200DDF2
:1029C00003E622216A5E9A4200DCFEE56B7A002B68
:1029D00000D08EE381230122EB5C2A219A40130070
:1029E0004A4668689361FDF7E1FD7623069AEB5A43
:1029F000944663449BB298466B7A002B00D1A4E3C3
:102A000081230122EB5C41469A4013004A466868E4
:102A10005361FDF7D7FD7623069AEB5AD4186B7AEB
:102A2000A4B2002B00D1B5E181230122EB5C21008F
:102A30009A4013004A4668685361FDF7C3FD6B7AFC
:102A4000002B00D0B9E181230122EB5C2B219A40BD
:102A500013004A4668689361FDF7A8FD7823EC5A95
:102A6000079B9C466B7A6444A4B2002B00D1B7E16B
:102A700081230122EB5C21009A4013004A466868DA
:102A80005361FDF79FFD7823EC5A079B9C466B7AB8
:102A90006444A4B2002B00D1B5E181230122EB5C98
:102AA00021009A4013004A4668685361FDF78AFD89
:102AB0006B7A002B00D0B9E181230122EB5C2C2141
:102AC0009A4013004A4668689361FDF76FFD6B7A80
:102AD000002B00D1BDE181230122EB5C05999A40D6
:102AE00013004A4668685361FDF76CFD6DE52B8B5A
:102AF000D21893B2069383B29A461C216B5E12B22F
:102B0000934200DD55E620216B5E934200DC50E6E7
:102B10006B8B53449AB207921E216A5E1BB29A4293
:102B200000DD46E622216A5E9A4200DC41E66B7ACD
:102B3000002B00D0F3E281230122EB5C2A219A4092
:102B400013004A4668689361FDF730FD7623069AC4
:102B5000EB5A944663449BB298466B7A002B00D1A3
:102B600008E381230122EB5C41469A4013004A4668
:102B700068685361FDF726FD7623069AEB5AD41850
:102B80006B7AA4B2002B00D193E081230122EB5C8D
:102B900021009A4013004A4668685361FDF712FD10
:102BA0006B7A002B00D097E081230122EB5C2B2174
:102BB0009A4013004A4668689361FDF7F7FC782352
:102BC000EC5A079B9C466B7A6444A4B2002B00D15C
:102BD00095E081230122EB5C21009A4013004A46D4
:102BE00068685361FDF7EEFC7823EC5A079B9C461E
:102BF0006B7A6444A4B2002B00D193E081230122BC
:102C0000EB5C21009A4013004A4668685361FDF767
:102C1000D9FC6B7A002B00D097E081230122EB5C7A
:102C20002C219A4013004A4668689361FDF7BEFC68
:102C30006B7A002B00D19BE081230122EB5C05998C
:102C40009A4013004A4668685361FDF7BBFCB0E543
:102C500028000021FDF710FE68680368DB689847CC
:102C6000002806D18023EA5C7F3B9340D0221206E5
:102C700053610BB0F0BCBB46B246A946A046F0BDBE
:102C800059450CDB00DC1DE11A005B46CB1A013311
:102C90000092594642461BB2FEF76EFCE9E71A0065
:102CA0005B4601335B1A00921BB24246FEF764FC9E
:102CB000DFE7686803681B6998470028F9D101229B
:102CC00068681021036800925B690022984600231F
:102CD000C04701226A7258E7686803681B69984711
:102CE0000028F9D1012204006868082103680092D5
:102CF0005B69002298460023C0476C7254E76868FD
:102D000003681B6998470028F9D1012268681021DF
:102D1000036800925B69002298460023C0470122A5
:102D20006A7256E7686803681B6998470028F9D1FA
:102D3000012268681021036800925B6900229846AE
:102D40000023C04701226A7258E7686803681B695C
:102D500098470028F9D10122040068680821036817
:102D600000925B69002298460023C0476C7254E7CA
:102D7000686803681B6998470028F9D101226868D0
:102D80001021036800925C6900220023A047012201
:102D90006A7251E7686803681B6998470028F9D18F
:102DA000012268681021036800925B69002298463E
:102DB0000023C04701226A7236E6686803681B690F
:102DC00098470028F9D101220400686808210368A7
:102DD00000925B69002298460023C0476C7232E67D
:102DE000686803681B6998470028F9D10122686860
:102DF0001021036800925B69002298460023C047B7
:102E000001226A7234E6686803681B6998470028E3
:102E1000F9D1012268681021036800925B690022E1
:102E200098460023C04701226A7236E66868036844
:102E30001B6998470028F9D101220400686808211D
:102E4000036800925B69002298460023C0476C72B9
:102E500032E6686803681B6998470028F9D10122A7
:102E600068681021036800925C6900220023A04773
:102E700001226A722FE6904509DA43460132D31ADD
:102E8000059A1BB200924246FEF7D0F9F1E619000E
:102E900043469B1A013300911BB23900FEF7C6F975
:102EA000E7E6089893B2C01A2418099323B2069350
:102EB000FFF7B5FA88B21B1A63441BB20890069359
:102EC000FFF793F94246FEF76BF8D2E668680368AD
:102ED0001B6998470028F9D101220700686808217A
:102EE000036800925E6900220023B0476F7215E507
:102EF000686803681B6998470028F9D10122904649
:102F000068681021036800925F6900220023B847B7
:102F100043466B72F3E4686803681B6998470028AE
:102F2000F9D10122914668681021036800925F6917
:102F300000220023B8474B466B7296E4686803682A
:102F40001B6998470028F9D1012207006868082109
:102F5000036800925B69002298460023C0476F72A5
:102F6000A7E4686803681B6998470028F9D1012223
:102F7000070068680821036800925B69002299468F
:102F80000023C8476F725CE4686803681B69984750
:102F90000028F9D101229146686810210368009247
:102FA0005B69002298460023C0474B466B7293E44E
:102FB000686803681B6998470028F9D10122914687
:102FC00068681021036800925B690022984600231C
:102FD000C0474B466B725DE4686803681B6998479D
:102FE0000028F9D1012207006868082103680092CF
:102FF0005E6900220023B0476F72FFF7A3FB686889
:1030000003681B6998470028F9D1012668680022E7
:10301000036800965B69102198460023C0476E72D2
:10302000FFF780FB686803681B6998470028F9D19F
:103030000122904668681021036800925B690022B3
:1030400099460023C84743466B72FFF753FB6868F5
:1030500003681B6998470028F9D1012206006868B7
:103060000821036800925B69002298460023C0474C
:103070006E72FFF72BFB686803681B69984700288E
:10308000F9D10122904668681021036800925B69BB
:10309000002299460023C84743466B72FFF706FBA0
:1030A000686803681B6998470028F9D10122070066
:1030B00068680821036800925B6900229946002332
:1030C000C8476F72FFF7C9FA686803681B699847B9
:1030D0000028F9D101229146686810210368009206
:1030E0005B6900229A460023D0474B466B72FFF77C
:1030F000C9FA069C686803681B6998470028F9D1DB
:103100000122804668680694036800925B69002289
:103110001C0008210023A04743466B725AE4069C1A
:10312000686803681B6998470028F9D10122804626
:1031300068680694036800925B6900221C000821FD
:103140000023A04743466B72F5E4140068680368E7
:103150001B6998470028F9D1012268680694036822
:1031600000925B6900221C0010210023A04701226D
:103170006A7245E41400686803681B699847002870
:10318000F9D1012268680694036800925B69002205
:103190001C0010210023A04701226A72E1E43A00DA
:1031A000FFF718FB3A00FFF721FA069C68680368EE
:1031B0001B6998470028F9D10122686806940368C2
:1031C00000925B6900221C0010210023A04701220D
:1031D0006A72FFF74FF9069C686803681B69984795
:1031E0000028F9D10122804668680694036800929D
:1031F0005B6900221C0008210023A04743466B7234
:10320000FFF721F9069C686803681B699847002846
:10321000F9D1012268680694036800925B69002274
:103220001C0010210023A04701226A72FFF77BF9DE
:10323000069C686803681B6998470028F9D1012239
:1032400068680694036800925B6900221C001021E4
:103250000023A04701226A72FFF74EF9069C6868B6
:1032600003681B6998470028F9D1012280466868E5
:103270000694036800925B6900221C000821002369
:10328000A04743466B72FFF720F9069C6868036805
:103290001B6998470028F9D10122686806940368E1
:1032A00000925B6900221C0010210023A04701222C
:1032B0006A72FFF7FAF8069C686803681B6998470A
:1032C0000028F9D1012280466868069403680092BC
:1032D0005B6900221C0008210023A04743466B7253
:1032E000FFF717F8069C686803681B699847002871
:1032F000F9D1012268680694036800925B69002294
:103300001C0010210023A04701226A72FEF7F1FF82
:10331000069C686803681B6998470028F9D1012258
:1033200068680694036800925B6900221C00102103
:103330000023A04701226A72FEF7C0FF069C68685E
:1033400003681B6998470028F9D101228046686804
:103350000694036800925B6900221C000821002388
:10336000A04743466B72FEF792FF069C68680368AD
:103370001B6998470028F9D1012268680694036800
:1033800000925B6900221C0010210023A04701224B
:103390006A72FEF76CFF069C686803681B699847B1
:1033A0000028F9D1012268680694036800925B69DD
:1033B00000221C0010210023A04701226A72FEF7A0
:1033C0003FFF069C686803681B6998470028F9D18D
:1033D0000122804668680694036800925B690022B7
:1033E0001C0008210023A04743466B72FEF711FF23
:1033F000069C686803681B6998470028F9D1012278
:10340000804668680694036800925B6900221C008D
:1034100008210023A04743466B72FFF794F893B24C
:10342000E41A54449B4624B2FFF707F9614683B27D
:10343000CC1A54449B4624B2FFF7F4F970B51C0231
:103440001C43254BC481994206D101238373262155
:10345000435ED90FC91849101F4B9A4206D1012368
:10346000C3732822835EDA0FD2185210002931DB91
:103470002624035F8B4226DD4181002A28DB282495
:10348000035F93421CDD2A23C45E828100238C42A9
:1034900010DC2E26855F2C19A1420BDC2C21445E0A
:1034A000944207DC3023C15ED30F0919CC17914237
:1034B0006341DBB2332283546C230022C25270BDBD
:1034C000013B1AB2DFE7013B19B24181002AD6DA8B
:1034D0000022D8E70021CFE70E2700000B04194394
:1034E00041637047F0B54E4657464546DE46E0B567
:1034F0000700894695B005931EAB1C881FAB1D883D
:1035000020AB197821AB187808920394079506919F
:10351000049016002622BB5E4B4500DC1DE22822EB
:10352000BB5EB34200DC18E28C464B004946634464
:103530005B00CA18002A00DC0FE2C0003218002A23
:1035400000DC0AE2AC4200D173E1398B49448CB211
:103550000DB22022B95EA94200DCFEE1B4467A8BAE
:10356000624496B212B29346B1462226BA5F9246A0
:103570005A4500DCF1E11C26BA5F0D955D199046B5
:10358000954200DCE9E11E257E5FB4460A965E4660
:103590008519654500DCE0E19DB283B20D98089382
:1035A000824200DD6FE380462BB2099443448B4294
:1035B00002DD099BC91A8DB2DC4500DD56E36B467E
:1035C00020229B5E5A46C8460A920A9A9446634451
:1035D000534504DD53464246981A83B208937868EF
:1035E0000368DB689847002806D18023FA5C7F3B9C
:1035F0009340D022120693617B7A002B00D0C3E364
:103600008123FA5C803B9340D022120693612A21E9
:103610007868FCF7CBFF7623099AFB5A94466344FB
:103620009BB299467B7A002B00D199E38123FA5C07
:10363000803B9340D0221206536149467868FCF7DC
:10364000C1FF7623099AFB5A9446013B6344EB1869
:103650009DB27B7A002B00D16DE38123FA5C803B25
:103660009340D0221206536129007868FCF7AAFF24
:103670007B7A002B00D04AE38123FA5C803B9340A5
:10368000D022120693612B217868FCF78FFF7823F4
:10369000FD5A7B7A4544ADB2002B00D122E3812351
:1036A000FA5C803B9340D02212067868536129006F
:1036B000FCF788FF7823F85A089B01389C46404461
:1036C0007B7A604484B2002B00D1F7E28123FA5C5C
:1036D000803B9340D0221206536121007868FCF7AA
:1036E00071FF7B7A002B00D0D4E28123FA5C803B0F
:1036F0009340D022120693612C217868FCF756FF84
:10370000059B9C469A0008230E93073B0893D34BD6
:1037100062449B1809932222BB5E5B4500DCAAE150
:10372000049B002B00D1A6E15B441BB20B93069BCC
:10373000013BDBB20A930CE05B4601331BB29B46B4
:103740000B9B9B4500D18BE12222BB5E5B4500DCDD
:1037500086E11E22BB5E5B45EEDC5B4600260D9DCE
:103760000C93039A099B91469B5D089A134201D1E1
:10377000079B9946069B002B30D0AAB293465B4428
:103780009CB201239846D0231B069A46059604E076
:103790000135ABB22DB2A3421BD01C22BB5EAB42A3
:1037A000F6DC2022BB5EAB42F2DD7B7A002B00D13F
:1037B0003FE181234246FB5C01359A4013005246AB
:1037C000494653617868FCF7FDFEABB22DB2A342C7
:1037D000E3D10A9D059E5D4401352DB20136052ECB
:1037E000BFD10C9B9B46069B002BA5D0EC188123D8
:1037F000D0269946803B9A4624B2360603E001352E
:103800002DB2A54298D01C22BB5EAB42F7DC202231
:10381000BB5EAB42F3DD7B7A002B00D1F6E04B467A
:103820005246FB5C07999A4078687261FCF7CAFEC1
:10383000E5E76346059A012B00D12FE194469300FA
:1038400063445A1C0E929A1C0F92DA1C1092069A2C
:103850000D9394460433119393B2059353000C9344
:1038600063440B93930013936344129308230A93C6
:10387000073B9846794B002207931823BA469B468C
:10388000414607980D9BC35C0B40591E8B410E9916
:103890005B00415C4046014202D001210B43DBB298
:1038A0000F9807995B00095C4046014202D0012154
:1038B0000B43DBB24446079D10985900285CC9B2FF
:1038C000204200D196E001231943CCB24146119B1E
:1038D000A400EB5CE4B264080B4200D099E11E2C1A
:1038E00000D1B9E1049E93B25E430993089B002581
:1038F0009C461C27664436B23B0023401C2B4FD00D
:103900005B462340182B60D0102323422CD1640047
:103910000135E4B2ABB22DB2002C11D01E2CEBD18C
:10392000059A534399B2039B494401936B46102275
:103930009B5E504600933200139B09B2FDF7C0FF17
:1039400043465B00DBB298460A9B099A013B013271
:103950009BB212B20A93002B92D115B0F0BCBB46B9
:10396000B246A946A046F0BD6B4618229B5E039A5C
:10397000059901926A46ADB269431020125E49442E
:1039800000925046320009B2FDF79AFFA4000235BA
:10399000E4B22DB2002CD3D03B0023401C2BAFD17E
:1039A000039B059901936B46ADB2694310229B5E60
:1039B00049440093320050460B9B09B22401043560
:1039C000FDF77EFFE4B22DB2E4E7039B0599019376
:1039D0006B46ADB2694310229B5E494400933200AE
:1039E00050460C9B09B2E4000335FDF769FFE4B2D1
:1039F0002DB2CFE71198295C214200D123E1DC00F0
:103A00000123E4B264081C43E4B26BE778680368FE
:103A10001B6998470028F9D152467868102103683D
:103A200000925B69002298460023C04753467B7290
:103A3000F5E6059E786803681B6998470028F9D168
:103A4000424678680596036800925B6900221E0072
:103A500010210023B04743467B72AAE6D09600109F
:103A6000089B5B00DBB208930E9B013BDBB20E931D
:103A7000002B00D04FE638000021FCF7FDFE7868EF
:103A80000368DB689847002800D066E78023FA5C6B
:103A90007F3B9340D022120653615EE7049B012BCB
:103AA00000D0CBE69446930063445A1C09929A1CBA
:103AB00006930A92DA1C04330C93CE4B002607932C
:103AC00001239A461C23A0469B460B920799069B0E
:103AD0000498CB5C03405A1E9341099A5B008A5CB0
:103AE000024202D052461343DBB20A99079A5B00A6
:103AF000525C04990A4202D052461343DBB2079843
:103B00000B99049D415C5A00D2B2294274D05346AD
:103B10001A430C9BD4B2A400C35CE4B264082B42E9
:103B200000D053E11E2C00D14CE1B3B29C460025DD
:103B3000089E05936644039336B25B4623401C2BD4
:103B40003AD018232340182B46D0E30621D4640032
:103B50000135E4B2ABB22DB2002C0FD01E2CECD14B
:103B600008994B448C4619B24346059A0093039238
:103B700062440423380012B2FDF7FEFC049B039E4E
:103B80005B00DBB201360493B3B236B2082B9DD191
:103B9000E3E64B46ADB2E91832004346380009B2BD
:103BA000FDF7FEF9A4000235E4B22DB2002CE5D0F9
:103BB0005B4623401C2BC4D14B46ADB2E9184346AB
:103BC000320000933800032309B224010435FDF7C5
:103BD000D3FCE4B22DB2E9E74B46ADB2E918434657
:103BE000320000933800022309B2E4000335FDF7E8
:103BF000C3FCE4B22DB2D9E70C99425C04990A42A5
:103C000000D1D6E0DC005346E4B264081C43E4B2C1
:103C10008BE701231C43E4B21F2C00D05FE693B274
:103C200019000993049B50461A004A4308991BB295
:103C30008C4603996244019100934946129B12B24B
:103C4000FDF73EFE7CE6DB00DBB25C08002B00D01B
:103C500048E693B2099373E6049E93B25E430993D8
:103C6000089B00219C46664436B25CE663469BB2E4
:103C700098464B4642469B1A089A944663449AB229
:103C800008921BB2A1E493B20993E31AEB189DB218
:103C90001BB28BE4059E786803681B69984700286F
:103CA000F9D10122040078680821036800925D6957
:103CB000002200230596A8477C7216E5059E7868C9
:103CC00003681B6998470028F9D10125786800220C
:103CD000036800955B691021984605960023C0474C
:103CE0007D72F3E4059E786803681B699847002895
:103CF000F9D10122914678681021036800925C692D
:103D0000002200230596A0474B467B72C7E4059E20
:103D1000786803681B6998470028F9D101220400DC
:103D200078680821036800925D69002200230596E7
:103D3000A8477C72A0E4059E786803681B699847D1
:103D40000028F9D101229146786810210368009279
:103D50005C69002200230596A0474B467B727CE4F9
:103D6000059E786803681B6998470028F9D10124EB
:103D700078680022036800945B6910219A460596D2
:103D80000023D0477C7251E4059E786803681B6964
:103D900098470028F9D101220400786808210368B7
:103DA00000925B690022994605960023C8477C7201
:103DB00026E4DB00DBB25C08002B00D0B5E6B3B232
:103DC0000393DBE6B2B200230592C9E653461C43D7
:103DD000E4B21F2C00D0A5E6B3B29C460393434641
:103DE000089A0093624405234946380012B2FDF751
:103DF000C3FBC3E6D09600106C23002270B5C164EB
:103E0000C252C36D0400002B03D08389C265063BF8
:103E1000838150230125E5540A7B172A00D070BD09
:103E200003264A7B0820164051220136E654B30887
:103E3000591CA1542A0002339A4013005222013B1C
:103E4000A354310004F058FB29005323B140E0543F
:103E500001391F2004F050FB04F03AFCA28EE38EDF
:103E6000A0659342DBD15A4253415B42E386D6E7D9
:103E7000F0B5DE464E4657464546E0B5C66C87B0BF
:103E8000834600920193002E00D1A6E10A2900D1B9
:103E900087E10D2900D18BE1B27B8A4200D98EE106
:103EA000F37B8B4200D28AE1B57C8C1A6C43B368F9
:103EB0000722029333689046994601329446073AA6
:103EC000484600239246B1460CE08B401E00534604
:103ED0008B40083A013B3B40AD1833436418002D3A
:103EE00000D12FE2E208875C424661462240891AEF
:103EF000A942EAD90122491BAA400F41AB404E46D4
:103F0000013A17403B430299CA18CB5C591100D0C3
:103F10004EE10720F17C81460130804607380D00D4
:103F2000B44602910327002182461E000EE00B00DA
:103F30005146814083400139083C31402D191943D5
:103F40003F18002D00D107E2FB08D65C4C464346E3
:103F50003C40181BA842EAD93300401B0341012012
:103F6000A840A9406646013803400B430593029FD1
:103F700003370397337D1D00029300239A460733CE
:103F8000984601339C46073B51469946B2460CE0A1
:103F900081400E0049468140083C013919402D19E5
:103FA00031433F18002D00D1D9E144466046FB085B
:103FB0003C40D35C001BA842EAD9401B03411800D7
:103FC0000123AB40A940013B03400B4356469A46B0
:103FD0000399029B8C46634404931F00737D002168
:103FE0001D0003930723984601339C46B1460CE01D
:103FF00081400E0001218140083C013919402D19F2
:1040000031433F18002D00D1A1E144466046FB0832
:104010003C40D35C001BA842EAD9401B0341180076
:104020000123AB40A9404E46013B03400B430293A2
:10403000039B591E01231800884001000298084282
:1040400003D003998B40C31A02930499039B8C46B7
:1040500063449C4604930723B17D9946013365462A
:104060000F0000249846B44603910CE084402600DB
:10407000012484400839013C1C407F1834432D182A
:10408000002F00D166E149464046EB082940D35C49
:10409000401AB842EAD90121C01BB9400341BC40D3
:1040A000664601390B401C43039B591E012318002F
:1040B0008840044202D003998B40E41A049B0821F3
:1040C0009C46039F002367448946A446B0461400DB
:1040D000F57D0CE08B401E0001238B400838013B2E
:1040E00013402D1833437F18002D00D12CE10720F9
:1040F0004946FA083840A25C091AA942EAD9491B84
:104100000A4111000122AA40AB4046466446013AEA
:104110000A4013436A46128900989446A1B2008867
:104120006C4660448C460292019AA48A12880391DC
:104130006244A4465446A4B2A0464824A1465C4624
:104140004D46645D07B211B26044424400B212B2FF
:10415000002C05D05C462625645F844200DA01E12C
:10416000109C0025645FBC4201DD109C2780119CDF
:104170000025645F8C4201DD119C2180129900248E
:10418000095F814201DA1299088013990020095EC3
:10419000914201DA13990A8000990A88D3180B809A
:1041A00006E0002301991380337E0A889B180B8058
:1041B00007B0F0BCBB46B246A946A046F0BD347C71
:1041C0008C42F5D8707C8842F2D30C1BF17BB57C15
:1041D0006418A41A01346C4369E6C36D002B6CD0DB
:1041E0000A2960D00D29E3D01A7A9142E0D3587A97
:1041F0008842DDD38A1A596805278C46D20062446A
:1042000011799B7A894691799C465B08C9184BB213
:104210009A4695784823D478D7575A46D35C002BD2
:1042200000D0CFE0009B00229B5E019A1288594685
:1042300044268E5D45218C4659466046095C5046B1
:104240008C464843121860464443774375431098A0
:10425000013CFB1811B2013D12190024045F1FB28A
:104260005B191BB212B2BC4201DD10980780119895
:104270000024045F8C4201DD119801801299002016
:10428000095E994201DA12990B80139B00215B5E53
:10429000934201DA139B1A804846009A70431388B0
:1042A0001818108084E7168045229B7A825C019959
:1042B00053430A889B180B807AE70A2967D00D2997
:1042C00000D175E74822825C002A69D1009B002555
:1042D0005D5F019B00269E5F5A464423D05C0133FC
:1042E0004400D35C2118129A49004919DB000025CB
:1042F000525F9B190139013B8A4201DA129A1180FF
:10430000139A0021525E9A4201DA139A1380009B9D
:1043100000229B5E109A0021525E9A4201DD109AA3
:104320001380019B00229B5E119A0021525E9A42EB
:1043300001DD119A1380009A0019138840001818A3
:10434000108035E74E46DEE546466446E2E64E46D8
:1043500002916DE66646A7E66646059107E6564673
:104360008A4635E600220098029D0280327E019E38
:104370003188521892B23280008803992D188C1817
:104380002FB221B26544444428B222B2E8E6138039
:1043900045230199C35C0A88DB009B180B8007E763
:1043A000009A0025555F4422815C4A0052180100A2
:1043B00052002620095E52198A4216DC019B002613
:1043C0009E5F89E74421884659464046009B095C28
:1043D00000229B5E7A194A4359462620095ED2186C
:1043E0008A4210DC019A128821E7009A594613800C
:1043F0004523CB5C0199DB000E889E1936B20E80F6
:104400000023D55E68E745235A46009901980E803F
:10441000D25C63465A430388D21892B202800023CA
:10442000CB5E04E7F0B54546DE4657464E46E0B55E
:104430008FB080460691002900D19AE0C26D002A13
:1044400000D0BDE00D78002D00D192E0002307934D
:1044500005930733994601339B46073B9A460A2D3D
:1044600077D04346DF6C002F00D19AE0BA7BAA4296
:1044700000D986E0FB7BAB4200D282E0BC7CA81A6C
:104480006043BB683A680893099700231700AC465D
:104490000BE05146914093400139083E2940A41950
:1044A0000B438018002C00D187E0C2084E46BD5C4B
:1044B0005A460640921BA242EBD92E00121B16410F
:1044C0005246A240A3406546013A1640099F334335
:1044D000089AD018D35C5B11C1D17A7D3D7DFB7CFD
:1044E000AD18BA7D0333AD180026FF7DED180AE044
:1044F00053468B408E40013B083A2340BF181E4371
:104500006D18002F10D0EB084A46C45C5B462A4069
:10451000991AB942ECD952462300BA40C91B0B4143
:10452000BE40013A13401E43059B9C466644B3B20D
:104530001A00059307990B1C914200D2131C9BB2E1
:104540000793069A5578531C002D0ED006930A2D1A
:1045500087D1059B079A9342F3D907930023069AC4
:1045600005935578531C002DF0D16B461C20185E26
:1045700000E000200FB0F0BCBB46B246A946A04602
:10458000F0BD387CA84200D969E7797CA94200D205
:1045900065E7FB7B281AC018BC7C801A0130604399
:1045A0006FE744229B5C5A009B18059A5B00944677
:1045B00063449BB21A000593BCE76546099F87E7F1
:1045C0000C22835E0BAA9146494642890CAC0A80B4
:1045D00006A98C46162262441380030092462622C6
:1045E0009A5E1E272280038D0DAD4B830123069911
:1045F0005B424E1C097867442B803B80002915D014
:1046000006AA94461A23634401934A4653464046F9
:104610000397029500940136FFF72AFC731E197860
:104620000029EDD10022AB5E0021625E00209342A2
:10463000A0DB0133981A00B29CE7C046F0B557469C
:104640004546DE464E46E0B587B09A46804617009E
:104650000B000391002A08D1002954D107B0F0BC07
:10466000BB46B246A946A046F0BD554600295AD1E0
:10467000002401339946119B20001BB29B46129BDC
:1046800000261BB24446049315E000280FD0524682
:10469000511A109A03B29446A28E61440192049A70
:1046A000091A009220005A4609B2FDF709F90020C4
:1046B0000136002D09D04B462900013DAB401F4279
:1046C000E3D000260130002DF5D1A0460400109D56
:1046D0005544002C0DD04046808E119A01901298BE
:1046E000291B00B2009023B2404612B209B2FDF776
:1046F000E7F8002EB2D0039B002BAFD0119A33B253
:1047000012B2A91B04E05346119A10991BB212B2BF
:104710004046C08E09B20190129800B20090404607
:10472000FDF7CEF89AE7109B0026994601239B4699
:10473000119B4F461BB20493129B00241BB291465F
:10474000059312E0002E0BD04246D28EB91B019287
:10475000059A4046009233B2049A09B2FDF7B0F8C8
:10476000002601340137002DB1D05B46013DAB403E
:104770004A461A42E6D1002C0BD04246928E391B93
:104780000192059A4046009223B2049A09B2FDF7BD
:1047900097F800240136E5E7F0B5DE4657464E4669
:1047A0004546E0B5C26C99B004AF7A648346907B0D
:1047B000884206D8D37B8B4203D3947C081A60438B
:1047C0000FE07C6C227C8A4200D9F5E2637C8B424C
:1047D00000D2F1E2E37B01315918A47C891A081A4E
:1047E00060437B6C00269A681B68FA64994607232D
:1047F000984601339C46073B9A4649460CE0964052
:10480000B14656469640013E2E404D46083BE418C0
:104810002E438018002C0FD0C308CD5C434662465F
:104820000340D21AA242EAD9121B15410122A2402A
:10483000A640013A15402E43FB6C9C46B4446246A8
:104840009B5DBA645A1100D0B6E27A6C0026D27C25
:104850000325924614000722904601329446073AF7
:1048600091460EE04A468A408E40013A08381A4086
:10487000241816436D18002C00D1B3E2BA6CEB0873
:10488000D35C404662462840111AA142EAD9091B6E
:104890000B410121A140A64001390B403343FB6489
:1048A00055467B6C03353D641B7D00269A461C00F3
:1048B0000723984601339C46073B99460BE04A463E
:1048C0008A408E40013A08381A40241816436D1861
:1048D000002C00D19BE2BA6C4046EB08D35C6246E8
:1048E0002840111AA142EAD90122091BA2400B411A
:1048F000A640013A13403343FB633E6C7B6C564445
:104900003E645B7D00249A461D00072398460133D0
:104910009C46073B99460AE04A468A408C40013A49
:1049200008381A402D1814437618002D11D0BA6C8F
:104930004046F308D35C62463040111AA942EBD9D5
:10494000491B0B411A000123AB40AC40013B134013
:104950001C4353465A1E0123190091400C4202D0B9
:1049600052469340E41A3E6C7B6C5644BE639B7D7A
:104970001D003B6400239A4607339946013398464D
:10498000073B9C465B46A34654469A460BE062466C
:104990008A408C40013A08381A402D181443761882
:1049A000002D00D120E2BA6C4846F308D35C4246A1
:1049B0003040111AA942EAD9491B0B415246A2467E
:1049C000190001235C4693465246AB40AA40013B86
:1049D0000B4013439A463B6C5A1E01231900914029
:1049E0000A005146114203D03A6C9340CB1A9A46C2
:1049F000BB6B3E6C9C467B6C66447E63DB7D072212
:104A00001D00BB63002391460132A44690461C0062
:104A10000BE001228A408C40013A08381A402D18D8
:104A200014437618002D00D1E3E1BA6C4846F30830
:104A3000D35C42463040111AA942EAD9491B0B41C6
:104A400001212200A940AA4001390B4013433B61D8
:104A50005B460A229B5E6446002B00DAD1E11A19FC
:104A60003A64002A04DA5A461B1B538100233B6434
:104A70003B6CFA6C9C465B4626215B5E62449A4224
:104A800000DCA1E148235A46D35C002B00D193E11E
:104A90000023002C01DA63421BB25A4653817B6C1F
:104AA00092891B7E00219B185A461BB29381FA6C97
:104AB000396432215846415C002904D03321415CDD
:104AC000002900D02DE35A462821525E9A4200DC8C
:104AD00072E1796BBA6B8C466244BA63F86B7A6C9C
:104AE000517E0200C91852448A1A7A6390465A4687
:104AF000B862D18E928E914200D1F5E15A460A25D4
:104B0000555F5A461821525E396CA8188C46944459
:104B100066463A69F96C821861447E627963914213
:104B200000DA11005A462026925FFA608A4200DDC0
:104B3000F9605E46F968013979601C24365F8E425F
:104B400000DD34E1796A7861884200DDE7E2786966
:104B5000C143C91708407861904200DB27E15A46FB
:104B60001A21525EF86B9B18424414003A645A466C
:104B7000A4462221515E7A6C6044127E3863D218BA
:104B8000904200DA7AE33860884200DD74E33A68E4
:104B9000013A91465A461E20125E90464A4500DD73
:104BA00005E11C003B6C9C4200DD1C00E343DB176D
:104BB0001C40A14200DCFAE05B4658680368DB68F1
:104BC0009847002807D180235A46D25C7F3B934008
:104BD000D0221206936143467B64A34200DA7C64D0
:104BE000BB8A98464423FB181B88FB62BB889A4605
:104BF0004B469BB299465B465B7A002B01D000F096
:104C000007FF81235A46D25C803B9340D022120694
:104C100093615B462A215868FBF7C8FC5A46762305
:104C2000D35A43449BB29846537A002B01D100F0EB
:104C30001AFF81235A46D25C803B9340D022120651
:104C400053615B4641465868FBF7BCFC5A467623E5
:104C5000D35A53449BB29846537A002B01D100F0AB
:104C6000EDFE81235A46D25C803B9340D02212064F
:104C700053615B4641465868FBF7A4FC5B465B7A90
:104C8000002B01D000F044FF81235A46D25C803BC8
:104C90009340D022120693615B462B215868FBF7A4
:104CA00085FC5A467823D35AFA6A944663449BB2E9
:104CB00098465B465B7A002B01D100F014FF8123FC
:104CC0005A46D25C803B9340D022120653615B4629
:104CD00041465868FBF776FC5A467823D35A4B4432
:104CE0009BB29946537A002B01D100F0E7FE812355
:104CF0005A46D25C803B9340D022120653615B46F9
:104D000049465868FBF75EFC5B465B7A002B01D096
:104D100000F0BEFE7B69BB60B34200DABE60812357
:104D20005A46D25C803B9340D022120693615B4688
:104D30002C215868FBF73AFC3B6C7A6C934200DC00
:104D4000A6E27B68BA68934200DAA1E281239A4620
:104D5000FB685C469B46D0231B069946BD680EE067
:104D600053460122E35C41469A4013004A4660687C
:104D700053610135FBF726FC5D4500D180E2E38EEF
:104D80009846637A002BEBD1606803681B699847EB
:104D90000028F9D1012260681021036800925B6944
:104DA00000221E000023B04701236372D8E73B694D
:104DB0009C465B4665445D81BD4615B0F0BCBB4674
:104DC000B246A946A046F0BD48235946CB5C002B0D
:104DD00001D000F018FC3223CB5C002B19D10C223F
:104DE0008B5E70E6FE645BE55346A2465C469B46DE
:104DF000F1E55B463C610A229B5E6446002B00DBCA
:104E00002DE65A4600233C645381220029E6FE63C6
:104E100073E50C228B5E33228A5C002A00D152E6B5
:104E20005A462C21515E5A46786C3024145F407EDD
:104E30000A198C46101A834200DC44E67B6C6E46ED
:104E40001D7E5B462E215B5E58000730C008C00007
:104E5000301A854604A9884661464919AC4201DCEE
:104E600000F06CFE4C1CAAB2491B7A640A1B9146E6
:104E70005A46AB462500140002E02E22A35E0135FF
:104E80002A20215E40464A4601900120521912B262
:104E900000902000FCF7F4FE2C23E25E3021635EDC
:104EA000D218AA42E9DC5D46A3462E21635E796CE6
:104EB0002DB2521A59462A20095E5846008F12B266
:104EC000019000955846FCF7FBFC5B46DB6C5946AD
:104ED0007B641A7E5B469B89B5469B1A5A461BB279
:104EE0009381528D4A81EEE550235A46D35C012BC3
:104EF00000D82FE10122013B07219A40BD6B13002E
:104F000007358D43002800D101E1FA6C002A00D159
:104F1000FDE00022FA63FF321A4084464346AA4667
:104F20005C466344BA63FB625023E35CBA6A98460A
:104F30000023994653339B46FB6A4D469B1A7B637D
:104F400053467B645B46E15C7B6CBA6CDB08D35CEC
:104F50009A464B1E9946FB6B581903F0F5FA4B46DF
:104F600042465B1A53435246DBB21A415223E35C7A
:104F70001340BA6B934200D2B3E03A6C238B944651
:104F800063445B199AB291461C21625E1BB29A423D
:104F900000DDA6E02021625E9A4200DCA1E07A6B8F
:104FA000638B944663449AB292461E21625E1BB2A2
:104FB0009A4200DD95E02221625E9A4200DC90E098
:104FC000A38E3B63637A002B00D0F5E28123E25C81
:104FD000803B9340D022120693612A216068FBF740
:104FE000E5FA7623E35A4B449BB29846637A002B4A
:104FF00000D1CCE28123E25C803B9340D0221206B8
:10500000536141466068FBF7DDFA7623E35A4B446F
:105010009BB29946637A002B00D1A2E28123E25C25
:10502000803B9340D0221206536149466068FBF7EB
:10503000C9FA637A002B00D07DE28123E25C803BD9
:105040009340D022120693612B216068FBF7AEFAE1
:105050007823E35A53449BB29846637A002B00D1DD
:1050600053E28123E25C803B9340D022120641460A
:1050700053616068FBF7A6FA7823E35A53449BB266
:105080009846637A002B00D129E28123E25C803BC1
:105090009340D0221206536141466068FBF792FAB2
:1050A000637A002B00D004E28123E25C803B9340D2
:1050B000D022120693612C216068FBF777FA637A9D
:1050C000002B00D1DFE18123E25C803B9340D022C2
:1050D00012065361396B6068FBF774FA5023E35C86
:1050E00098467B6C013543447B64FB6C9D4200D049
:1050F00028E71A0094467B6C9A46FB6B6344FB637B
:10510000BB6A013BBB62002B00D00DE7A3463A69A6
:105110005B4694465A465B89634453814CE6796109
:1051200015E559462A20095E58462E25405F40184D
:10513000904200DB74E6002C01DA614209B25A4663
:1051400051817A6C127ED3185A461BB29381002289
:105150003A6465E60028DADD082307259846FA63F5
:105160002A00B96BBC6CCB08E35C8A431341012273
:10517000481C7A641A422CD000230326A44611E06E
:1051800093409B4601239340994601235B429A46F4
:10519000D1444B461C405B4608397618234380189F
:1051A000002E12D06146C2088C5C290042460140A4
:1051B000521AB242E4D92100921B11410A00012186
:1051C000B140B34001390A401343B86B02337B64EA
:1051D000043000239946B8634A46FB6C9B1A9B46F1
:1051E000202B01DD20239B46BB6B5E469A46BB6CA1
:1051F00000229C4650460CE08A40924601228A409A
:10520000013A22405446083BF61822434018002E2B
:1052100011D06146C308CC5C2B0041460340C91A3B
:10522000B142E9D92300891B0B410121B140B240B1
:1052300001390B401A437B6C002102937B6B019375
:105240003B6C4B440093F86B5B46FFF7F7F9BB6B85
:10525000D9445B44BB63FB6C9945BDD37A6C7B6BD3
:10526000944663447B63BB6A9B1ABB62002B00DDE0
:1052700076E7FB6B9B464AE7396088E4100082E4DE
:105280007B6C3A6C01337B649A4200D063E5A346A1
:1052900050235A46D35C012B00D8FDE10722BB6B9B
:1052A000073393437B64FB6B002B00D1B3E03B6C73
:1052B0005D469A460023BB63013399467B68564698
:1052C0009B467B695B4500DD9AE07A6B1C0093424C
:1052D00069DA13009246FA68934200DD924653461B
:1052E000B0467C69FB641C22AB5EA34254DC2022E6
:1052F000AB5EA34250DD1E22AB5E43454CDC222256
:10530000AB5E434548DD7B6AA34200DD6AE153237F
:10531000E95C2B6CBA6C9A467B6CB86BDB08D35C8F
:105320004E1EFB6203F010F9731A50216A5C53435E
:10533000FA6ADBB21A4113005222A85C184003F04B
:10534000C7F9A96D03F0BDF903F0E4F95246EB6B20
:10535000C0B29B1A4343CF4A5B09534413401A0C13
:1053600013439BB29A466B7A002B00D13BE3812317
:105370004A46EB5C51469A40D0231B065A61686846
:10538000FBF720F97A6C50239446EB5C9C4463460F
:105390007B64BB6B0133BB63FB6C01349C42A2DBBF
:1053A0004646A3452CDBD0231B069A465B46B046F7
:1053B000FB641C22AB5EA3421CDC2022AB5EA3423A
:1053C00018DD1E22AB5E984514DB2222AB5E9845A9
:1053D00010DAEB8E9B466B7A002B00D12FE18123F4
:1053E0004A46EB5C59469A4013005246686853613E
:1053F000FBF7E8F8FB6C0134A342DADA9B46464639
:105400003B6B01369E4200D05BE7FA6BAB4694469D
:105410003B6C63443B643B683A6CB9689A1AFB681E
:105420005B1A53435C1E012B00DCF2E0812399469A
:10543000D0231B06012598465E460EE04B462A0007
:10544000F35C51469A401300424670685361013C38
:10545000FBF7B8F8002C00D1DAE0F38E9A46737AA5
:10546000002BEBD1706803681B6998470028F9D1BD
:1054700070680022036800955B6910219B46002339
:10548000D8477572DAE77E6C606803681B699847D5
:105490000028F9D10122904660687E64036800927A
:1054A0005B690022994610210023C8474346637276
:1054B00009E67E6C606803681B6998470028F9D18B
:1054C0000122804660687E64036800925B69002266
:1054D000994608210023C84743466372E4E57E6C81
:1054E000606803681B6998470028F9D1012291463A
:1054F00060687E64036800925B6900229A4610210E
:105500000023D0474B466372BFE57E6C606803683A
:105510001B6998470028F9D10122914660687E6492
:10552000036800925B6900221E0010210023B0472F
:105530004B46637295E57E6C606803681B6998470B
:105540000028F9D10122804660687E6403680092D9
:105550005B690022994608210023C84743466372CD
:105560006BE57E6C606803681B6998470028F9D179
:105570000122904660687E64036800925B690022A5
:105580001E0010210023B0474346637246E57E6C3F
:10559000606803681B6998470028F9D10122606898
:1055A0007E64036800925B6900221E0010210023C4
:1055B000B047012262721DE57E6C606803681B695A
:1055C00098470028F9D10122804660687E6403680C
:1055D00000925B6900221E0008210023B047434669
:1055E0006372F3E4EB8E9A466B7A002B3CD08123F6
:1055F0004A46EB5C51469A40D0231B0668685A61C4
:10560000FAF7E0FFC8E65B460C215B5EFFF751FA54
:10561000B3465B465846D98EFBF7DEFA5B465868C0
:105620000368DB689847002800D070E580235A465D
:10563000D25C7F3B9340D0221206536167E5FE6C3B
:10564000686803681B6998470028F9D14A4668686A
:10565000FE64036800925B6900221E001021002393
:10566000B0474B466B72BAE6FE6C686803681B690C
:1056700098470028F9D14A466868FE64036800929A
:105680005B6900221E0010210023B0474B466B725D
:10569000ADE7C0461FF8E007FB6B002B00DCBAE665
:1056A0000126DA46B86BBA6CC308D35C0722824382
:1056B00013410022411CF9613A621E4232D0072395
:1056C00003209C4601330025984604000CE09540D9
:1056D000AB4635009540013D05405846083BE4186F
:1056E00005438918002C15D0BA6CCB08D05C6346F2
:1056F00042460B40D21AA242E9D9230029000400F5
:1057000099401800D21A330083401441013B1C40D9
:105710000C432500BB6B0433FB61AB1C00D15FE184
:105720006B1C3B623B6C7B630133BB6153463B6349
:105730003B6B1E215A5E94467A6B944504DC222111
:105740005B5E934200DD04E17B6A3B64FB69BB6303
:105750000023FB63FB6CFA6B9B1A7B64202B01D943
:1057600020237B64BB6B0024994607239B460133AF
:105770009A46BB6C484698467D6C0CE08C40A1462E
:1057800034008C40013C1C404B46083AAD181C4389
:105790004018002D10D04246C308D35C5A465146EB
:1057A0000240891AA942E9D93200491BAA400B419B
:1057B000AC40013A13401C437A6B944504DC3B6BCC
:1057C00022215B5E934231DC7A6CFB6B9046FA6C73
:1057D0004344FB6393420BD27A6B9445BADDFA6C77
:1057E000D21A202A00D920229B18FA6C9A42F6D8A5
:1057F0007B6B634505DB3B6B22229B5E7A6B93429E
:1058000072DC396A7A6B8C46BB69013263447A6315
:1058100093428DD13B6B3A649A46BB6A013B5B1A5B
:10582000BB62002B00DD3DE7D346F4E532007B6C24
:10583000013B9A4090464AD081239A46D0231B06CA
:105840009B463D6BFC6218E0AB8E99466B7A002B51
:1058500025D053463200EB5C49469A4013005A4625
:1058600068685361FAF7AEFE43465B0898463B6CA6
:1058700001333B644346002B25D01C22AB5E396CC0
:105880008B42F1DC2022AB5E8B42EDDD4346FA6AAF
:105890001342D9D1EB8E99466B7A002BD9D13C6C4F
:1058A000686803681B6998470028F9D10122686875
:1058B0003C64036800925B6900221C0010210023F5
:1058C000A0476E72C5E73B6B1E229B5E9C467A6CBE
:1058D000BB6B90464344BB63FB6BFA6C4344FB6376
:1058E0009A4200D936E783E73B6C5A1C90467A68A7
:1058F0009A4286DBFB68454601339A46D0231B0655
:1059000099463C6B0EE081233200E35C41469A40AD
:1059100013004A46606853610135FAF753FE554556
:1059200000D16EE7E38E9846637A002BEBD1606876
:1059300003681B6998470028F9D10122606810218B
:10594000036800925B6900229B460023D847667279
:10595000D9E77B697A6A934200DBF5E61C00812374
:105960009A46D0231B0699463B6B93467B6402E024
:105970000134A3451AD0796C1C228B5EA342F7DC5C
:1059800020228B5EA342F3DDCB8E98464B7A002B10
:1059900011D053463200786C4146C35C40689A404F
:1059A00013004A465361FAF70DFEE1E73B6B1E22F6
:1059B0009B5E9C46C8E60D00686803681B699847B3
:1059C0000028F9D1012268687D64036800925B6950
:1059D00000221D0010210023A8477B6C5E72D8E7CF
:1059E000FB69BB635EE6FE6C686803681B699847E9
:1059F0000028F9D14A466868FE64036800925B6932
:105A000000221E0010210023B0474B466B72AEE40B
:105A10005C46606803681B6998470028F9D1012239
:105A2000A346050060680821036800925C690022B3
:105A30000023A0475B465D72FFF7E3F85C466068B1
:105A400003681B6998470028F9D16068A3460124C0
:105A5000036800945D69002200231021A8475B467B
:105A60005C72FFF7FEF85C46606803681B69984744
:105A70000028F9D16068A3460124036800945D6999
:105A8000002200231021A8475B465C72FFF7D1F883
:105A90005C46606803681B6998470028F9D10122B9
:105AA000A346050060680821036800925C69002233
:105AB0000023A0475B465D72FFF72CF95C466068E7
:105AC00003681B6998470028F9D16068A346012440
:105AD000036800945D69002200231021A8475B46FB
